{
  "contractName": "DApp",
  "abi": [
    {
      "inputs": [
        {
          "internalType": "address",
          "name": "nftCollectionAddress",
          "type": "address"
        }
      ],
      "stateMutability": "nonpayable",
      "type": "constructor"
    },
    {
      "inputs": [
        {
          "internalType": "address",
          "name": "user",
          "type": "address"
        }
      ],
      "name": "userHasNFT",
      "outputs": [
        {
          "internalType": "bool",
          "name": "",
          "type": "bool"
        }
      ],
      "stateMutability": "view",
      "type": "function",
      "constant": true
    }
  ],
  "bytecode": "0x608060405234801561001057600080fd5b506040516103ab3803806103ab833981810160405281019061003291906100db565b806000806101000a81548173ffffffffffffffffffffffffffffffffffffffff021916908373ffffffffffffffffffffffffffffffffffffffff16021790555050610108565b600080fd5b600073ffffffffffffffffffffffffffffffffffffffff82169050919050565b60006100a88261007d565b9050919050565b6100b88161009d565b81146100c357600080fd5b50565b6000815190506100d5816100af565b92915050565b6000602082840312156100f1576100f0610078565b5b60006100ff848285016100c6565b91505092915050565b610294806101176000396000f3fe608060405234801561001057600080fd5b506004361061002b5760003560e01c80636f82179914610030575b600080fd5b61004a6004803603810190610045919061016e565b610060565b60405161005791906101b6565b60405180910390f35b60008060008054906101000a900473ffffffffffffffffffffffffffffffffffffffff1673ffffffffffffffffffffffffffffffffffffffff166370a08231846040518263ffffffff1660e01b81526004016100bc91906101e0565b602060405180830381865afa1580156100d9573d6000803e3d6000fd5b505050506040513d601f19601f820116820180604052508101906100fd9190610231565b905060008111915050919050565b600080fd5b600073ffffffffffffffffffffffffffffffffffffffff82169050919050565b600061013b82610110565b9050919050565b61014b81610130565b811461015657600080fd5b50565b60008135905061016881610142565b92915050565b6000602082840312156101845761018361010b565b5b600061019284828501610159565b91505092915050565b60008115159050919050565b6101b08161019b565b82525050565b60006020820190506101cb60008301846101a7565b92915050565b6101da81610130565b82525050565b60006020820190506101f560008301846101d1565b92915050565b6000819050919050565b61020e816101fb565b811461021957600080fd5b50565b60008151905061022b81610205565b92915050565b6000602082840312156102475761024661010b565b5b60006102558482850161021c565b9150509291505056fea26469706673582212205c3b5cbaca5b26051fc6b013417b4f7ad1a927e6be356eba5f1468c80cf9bbb064736f6c63430008130033",
  "immutableReferences": {},
  "source": "// SPDX-License-Identifier: MIT\n\npragma solidity ^0.8.19;\n\nimport \"@openzeppelin/contracts/token/ERC721/IERC721.sol\";\n\ncontract DApp {\n    IERC721 private nftCollection;\n\n    constructor(address nftCollectionAddress) {\n        nftCollection = IERC721(nftCollectionAddress);\n    }\n\n    function userHasNFT(address user) public view returns (bool) {\n        uint256 balance = nftCollection.balanceOf(user);\n        return balance > 0;\n    }\n}\n",
  "sourcePath": "/Users/antoniofurtado/projects/nft_auth_dashboard/contracts/DApp.sol",
  "compiler": {
    "name": "solc",
    "version": "0.8.19+commit.7dd6d404.Emscripten.clang"
  },
  "schemaVersion": "3.4.13",
  "updatedAt": "2023-04-24T14:44:37.032Z",
  "networkType": "ethereum",
  "devdoc": {
    "kind": "dev",
    "methods": {},
    "version": 1
  },
  "userdoc": {
    "kind": "user",
    "methods": {},
    "version": 1
  }
}